S00C00006D61696E2E7372656373
S1130000F0E4FF1FF70C0000F50C0000F50C0000F5
S113001000000000000000000000000000000000DC
S1130020000000000000000000000000F50C0000CB
S11300300000000000000000F50C0000F50C0000BA
S1130040F70C0000F70C0000F70C0000F70C0000A0
S113005000000000F70C0000F70C0000F70C000093
S1130060F70C0000F70C0000F70C0000F70C000080
S1130070F70C0000F70C0000F70C0000F70C000070
S1130080F70C0000F70C0000F70C0000F70C000060
S1130090F70C0000F70C0000F70C00000000000053
S11300A0F70C0000F70C0000F70C0000F70C000040
S11300B0F70C000000000000F70C0000F70C000033
S1130400FFFFFFFFFFFFFFFFFFFFFFFFFEFFFFFFF9
S113041010B5264B0022882149015A5024481C5803
S1130420244921431950244B1868802109020143AF
S1130430196019688020814319602049CA610A62E1
S11304408A62CA624A658A65CA651D494A648A64C1
S11304501C490A601C490A614A611C4919605A60B6
S11304609A601B4919611B495961C02109039961AB
S11304701949D9611A625A629A62DA621749196390
S11304805A639A63DA631A645A6411219964DA64C8
S11304901A65113159659A65DA651968104A11406F
S11304A019601A6802431A6010BDC0460070044007
S11304B038100000003C08000030054000A0044053
S11304C000B0044000C0044000D004406384B00085
S11304D0800D0E006001300000011000000088440F
S11304E0FF7FFFFF10B50F4BFF2145229954773949
S11304F0143A995422390A3A9954002228241A5554
S11305002D34195520395A540F2806D9054B002289
S11305102A215A5401315A5410BD423900F004F8CA
S1130520FAE7C0460030054010B5042906D80F2864
S113053000D906E18000854B1B589F460120FFF738
S1130540D1FF10BD4B1E5B00814AD35C81488446B9
S11305506344BB20187049000139535C6344EE22A4
S11305601A70EEE74B1E5B00794AD35C79488446E7
S113057063440020187049000139535C63446622C7
S11305801A70DEE74B1E5B00714AD35C71488446E7
S113059063447720187049000139535C6344CC22CA
S11305A01A70CEE74B1E5B00694AD35C69488446E7
S11305B063445520187049000139535C6344EE22AA
S11305C01A70BEE74B1E5B00614AD35C61488446E7
S11305D06344CC20187049000139535C634466229B
S11305E01A70AEE74B1E5B00594AD35C59488446E7
S11305F06344DD20187049000139535C6344AA2226
S11306001A709EE74B1E5B00514AD35C51488446E6
S11306106344FF20187049000139535C6344AA22E3
S11306201A708EE74B1E5B00494AD35C49488446E6
S113063063440020187049000139535C6344EE227E
S11306401A707EE74B1E5B00414AD35C41488446E6
S11306506344FF20187049000139535C6344EE225F
S11306601A706EE74B1E5B00394AD35C39488446E6
S11306706344CC20187049000139535C6344EE2272
S11306801A705EE74B1E5B003148C35C314A9446E6
S11306906344EE221A7049000139435C63441A70C2
S11306A04FE74B1E5B002A4AD35C2A4884466344C6
S11306B0FF20187049000139535C634422221A70E8
S11306C03FE74B1E5B00224AD35C224884466344C6
S11306D0BB20187049000139535C634488221A70A6
S11306E02FE74B1E5B001A4AD35C1A4884466344C6
S11306F07720187049000139535C634466221A70EC
S11307001FE74B1E5B00124AD35C124884466344C5
S1130710FF20187049000139535C634488221A7021
S11307200FE74B1E5B000A4AD35C0A4884466344C5
S1130730EE20187049000139535C634488221A7012
S1130740FFE60120FFF7CEFEFBE6C046A449000009
S1130750E44900002030054070B50500000B01217C
S1130760FFF7E2FE280A0F2420400221FFF7DCFEF7
S1130770281120400321FFF7D7FE20002840042140
S1130780FFF7D2FE70BD70B504001B4B98422FD802
S1130790FA21890003F0BAFD85B2E8B20121FFF71E
S11307A0C3FE164868432018642103F039FEC0B222
S11307B00221FFF7B9FE6421200003F0A7FD83B2F4
S11307C064204042584320180A2103F029FEC0B295
S11307D00321FFF7A9FE0A21200003F097FD0A2355
S11307E05B4258430019C0B20421FFF79DFE70BD5F
S11307F01020FFF777FEFAE70F27000018FCFFFF31
S113080070B505000C006323834289414942A34229
S11308109B415B420B4326D10A2103F077FDC0B212
S11308200121FFF781FE0A21280003F0F5FDC8B27B
S11308300221FFF779FE0A21200003F067FDC0B210
S11308400321FFF771FE0A21200003F0E5FDC8B281
S11308500421FFF769FE06492B228B5C1120034318
S1130860DBB28B5470BD1020FFF73CFEFAE7C046A4
S11308700030054082B00023019302E0019B013364
S11308800193019A024B9A42F8DD02B07047C046C8
S11308903F420F00024B03221A7000225A70704725
S11308A000400640144B00218822520199501349FC
S11308B058588022120102435A50114BD9688022A1
S11308C052000A43DA60DA6802210A43DA60DA681D
S11308D001390A43DA60D968A02212030A43DA60B4
S11308E0084AC721890053581B021B0A535080230E
S11308F01B0613607047C0460070044038100000A7
S113090000B0044000E100E0144B002188225201B1
S11309109950134958588022120102435A50114BDE
S1130920196B802252000A431A631A6B02210A438C
S11309301A631A6B01390A431A63196BA022120352
S11309400A431A63084AC721890053581B021B0A29
S1130950535080231B0613607047C0460070044048
S11309603810000000B0044000E100E00B4B00210F
S11309708822520199500A495858013AFF3A0243D1
S11309805A5080225200074B5A61074B5969202064
S1130990014359615A6802435A6070470070044029
S11309A03810000000C00440C0F00F40024A9368B1
S11309B020210B4393607047C0F00F40024A5368F4
S11309C020210B4353607047C0F00F400B4B0021B4
S11309D08822520199500A495858802292010243B0
S11309E05A5080225200074B5A67074B5A6980219C
S11309F089050A435A6159607047C0460070044033
S1130A003810000000D0044000F10F40034A916800
S1130A1080239B050B4393607047C04600F10F4051
S1130A20034A516880239B050B4353607047C046BB
S1130A3000F10F40034B5B682020184043425841AB
S1130A407047C04680F00F40034B586880239B05D5
S1130A50184043425841704780F00F4010B5134A84
S1130A60A023D45801214942D150082C04D080231A
S1130A705B019C420DD010BDFFF7DCFF002805D1BF
S1130A80FFF7C4FF0A4803F098FAF0E7FFF796FF70
S1130A90F6E7FFF7D9FF002805D1FFF787FF0548E0
S1130AA003F08BFAE7E7FFF7BBFFF6E700B004407B
S1130AB0EC490000004A000030B585B0FFF7EAFEBB
S1130AC0FFF7A6FCFFF782FFFFF750FF03F078FB68
S1130AD003F0C0FB03F096FB0020FFF754FEFFF782
S1130AE0E1FEFFF711FF704803F067FA002454E0B9
S1130AF0FFF796FF5FE0FFF761FF60E0FFF786FF17
S1130B0063E0FFF753FF64E0013383420BDA01AA89
S1130B10D15C664A1268521852785207F4D4002DF8
S1130B20F2D00025F0E7002D2CD1614901A803F093
S1130B30FBFD002860D05F4901A803F0F5FD002803
S1130B4067D05D4901A803F0EFFD00286ED05B4932
S1130B5001A803F0E9FD002800D0A0E0584B1B6871
S1130B60002B77D0564B00221A605B68002B00D014
S1130B708AE0534B9B68002B00D08AE0514803F075
S1130B801CFA07E001A803F037FD040001004E48F9
S1130B9003F013FAA0B2FFF7F6FD494B1B68002BD4
S1130BA019D0474B5B68002B03D1454A9268002A51
S1130BB011D0002B9CD1424B9B68002B9BD1FFF79B
S1130BC059FE3F4B5B68002B98D13D4B9B68002B33
S1130BD097D1FFF74FFE3D4803F0EFF901A93C48D8
S1130BE003F011FA01A93B4803F0E7F901A803F067
S1130BF0DFFD0023012588E7FFF726FF002805D144
S1130C00FFF7D4FE344803F0D8F9C3E7FFF708FF31
S1130C10F6E7FFF70FFF002805D1FFF7F7FE2F488F
S1130C2003F0CBF9B6E7FFF7C9FEF6E7FFF702FFDB
S1130C30002809D1FFF708FF0028ABD0FFF7F0FE2A
S1130C40274803F0BAF9A5E7FFF7B8FE254803F0F3
S1130C50B4F9EFE7FFF7F8FE002807D1FFF7EAFE43
S1130C6000280AD10122164B1A6093E70122144B83
S1130C705A601D4803F0A1F9F0E70122104B9A6075
S1130C801A4803F09AF9EDE70D4B5A60FFF7BEFEE0
S1130C906FE700220A4B9A60FFF788FE6EE714485C
S1130CA003F08BF976E7C046104A00000CE0FF1F02
S1130CB0604A0000684A0000704A0000984A000038
S1130CC074E0FF1FD04A0000544A0000204A00008C
S1130CD0384A00003C4A0000004A0000EC49000089
S1130CE0844A0000744A0000A04A0000B84A000088
S1130CF0E44A0000FEE710B500F0DDF80A4B0B4AA9
S1130D0003E0116819600433043209498B42F8D3B3
S1130D10084B02E000221A600433074A9342F9D3D5
S1130D20FFF7CAFE10BDC04600E0FF1F28550000B3
S1130D3074E0FF1F74E0FF1FECE0FF1F70B5554B1C
S1130D401B783F22934300D082E0524B5B795B06D1
S1130D5068D4504B1B785B073BD44E4B5A783023F6
S1130D601A4213D04B4B1B7838221340302B2DD012
S1130D70382B02D1C021C90010E0464B1A78D208A2
S1130D80072313402021994089B207E0414B1A7888
S1130D90D208072313400121994089B23E4803F049
S1130DA0B5FA3C4BDB781F229343602B2ED0DAB28A
S1130DB0602A11D9DAB2A02A2DD018D9DAB2C02A01
S1130DC02DD0E02A3AD1354B584337E0A021C90051
S1130DD0E4E780200002E4E7202B0ED0402B11D062
S1130DE0002B2BD183001818C301180026E0802A99
S1130DF024D1B7239B00584320E083001818030232
S1130E0018001BE003011B1AD80117E0830018180F
S1130E104302180012E0B723DB0058430EE0204BD6
S1130E2058430BE01B4D29791F24214001311A48F6
S1130E3003F06CFA6B79234018335843194B1A4A60
S1130E40D158090F013103F061FA184B186070BDD5
S1130E50104B1B783F229343402B07D00D4B1B783C
S1130E603F229343802BF2D10B48E7E7094B5B7891
S1130E70DB070CD5074B1A7A5208072313400121CC
S1130E8099400904090C0A4803F040FAD6E7802087
S1130E900002D3E70040064000127A00710B000004
S1130EA095080000441000000070044000E0FF1F9B
S1130EB000093D00704710B5002188235B01024AF8
S1130EC0D150FFF7F7FF10BD0070044082B0054B0E
S1130ED0019300E0C046019B5A1E0192002BF9D1F8
S1130EE002B0704730750000074B9B79DB0708D5CB
S1130EF0054B1A7A520807231340044A5068D84015
S1130F007047024B1868FBE70040064004E0FF1FEF
S1130F10054B984206D9054B984201D902207047E7
S1130F200120FCE70020FAE79798000000127A00FD
S1130F3010B5054B1868002800D010BD034B044AB7
S1130F40EE21044802F03AFFE8E0FF1F4C4C000099
S1130F50544B0000584C000010B5FFF7E9FF00287F
S1130F6011D00D490A78D20807231340D8404A7893
S1130F701209920707D0062B06D003D3072B07D0FC
S1130F80002000E0400910BD142103F0BFF9FAE786
S1130F900C2103F0BBF9F6E70040064010B5054B01
S1130FA09B79DB0602D5044B186810BDFFF7D4FF0C
S1130FB0FBE7C0460040064004E0FF1F10B5FFF702
S1130FC0B7FF10BD10B5094B1B785BB2002B01DBDA
S1130FD0002010BD064B18680028FAD1054B064ABC
S1130FE018326221FF31054802F0E8FE0050064045
S1130FF0E8E0FF1F4C4C0000544B0000584C00002C
S113100010B5124B1A68920C03231340022B10D014
S1131010032B03D0002B04D0002001E0FA20800031
S113102010BDFFF7CFFF80231B029842F8D00020A9
S1131030F6E7074B18680028F2D1064B064A30320F
S11310407621FF31054802F0B9FEC0460070044025
S1131050E4E0FF1F6C4C0000544B0000584C0000AF
S113106030B50D4B0D4A4168995001780C4C1A5912
S11310700C4D2A40090480256D0229400A431A5167
S113108041781A68084802408904C02000030140DE
S11310900A431A6030BDC04600700440441000008A
S11310A004100000FFFFFEFFFFFFF3FF30B5114AFD
S11310B01368114C23401360002812D00F4B99423F
S11310C016D000210E4C0F4AA3580F4D2B4003435A
S11310D0A350084A10688023DB020343136008000E
S11310E030BD0749074A8B5823408B500121F0E754
S11310F00121E7E734800440FFFFFBFF006CDC02C2
S11311000070044004100000FFFFFAFF10B5104BFC
S11311105B789B0719D40E4B9B799B0601D5002065
S113112014E0FFF73BFF002810D00949CA785209A0
S113113003231340CA78D2095B009B185B00054A5D
S1131140D31848229B5A584300E0002010BDC046E3
S113115000400640544B000010B5044B1B789B071D
S113116001D4002010BDFFF7BFFEFBE7004006409E
S113117070B50E4B9B795B0601D4002070BDFFF760
S11311801DFF00280BD0094D29791F24214001316E
S113119003F0BCF86B79234018335843EEE7044B53
S11311A0044A58320449054802F008FE004006404B
S11311B07C4C0000544B000061020000584C0000BD
S11311C010B5094B094AD258120C0123134003D01D
S11311D0012B04D0002001E0FFF798FF10BDFFF7BA
S11311E0C7FF4008FAE7C04604100000007004403E
S11311F010B50D4B9A79920803231340012B0BD0A1
S1131200002B06D0022B0AD0032B0BD1FFF7B0FF23
S113121010BDFFF77BFFFBE7FFF766FEF8E7FFF77C
S113122087FEF5E70020F3E70040064010B5FFF71E
S1131230DFFF044B044AD158090F013103F066F86B
S113124010BDC046441000000070044070B5FFF7A4
S1131250CFFF074D074C2959090F013103F056F808
S11312602B591B0C07211940013103F04FF870BDB5
S1131270007004404410000070B5FFF7B9FF074D3B
S1131280074C2959090F013103F040F82B591B0C65
S113129007211940013103F039F870BD0070044092
S11312A04410000010B5FFF7A3FF044B044AD158C3
S11312B0090F013103F02AF810BDC04644100000A4
S11312C00070044010B5FFF769FE041E01D1200030
S11312D010BDFFF78DFFC0088442F8D90024F6E75B
S11312E070B50C2836D880001B4B1B589F46FA203B
S11312F0800070BDFFF77CFF184B194AD158090FC5
S1131300013103F003F8F4E7FFF772FF144D134CB7
S11313102959090F013102F0F9FF2B591B0C072140
S11313201940013102F0F2FFE3E7FFF749FFE0E77C
S1131330FFF766FEDDE7FFF7C5FFDAE7FFF70CFF0F
S1131340D7E7FFF7E3FED4E7FFF712FFD1E7FFF794
S113135039FECEE70020CCE7004B0000441000002B
S1131360007004400020704770B5204B9C79A4089D
S113137003252C409D7901262E401D7A6D080723F4
S11313802B40934219D0002E0ED0012C03D0174BC2
S11313901B789B0708D5154D6B780126B3436B70FA
S11313A0124B9B79DB07FBD4104D2B7A2F26B343CA
S11313B05200213E32401A432A720C4A53780125C6
S11313C0AB430D402B43537013780325AB430343C6
S11313D01370012C01D0830705D5044B9B7901229E
S11313E013408B42F9D1002070BDC0460040064036
S11313F0F0B5CE4600B586B001900D000492059379
S11314000400030032498C4663441A00314B9A426B
S113141059D8314902F07AFFC6B230492300304A24
S113142094466344180002F071FFC3B29946012741
S11314307F4213E0721E04990A70183B059A1370D8
S11314403DE00133DBB2372B06D82418641BA742D6
S113145002D9270003930296013EF6B24E451CD3EF
S11314603100019802F052FF04000100280002F04C
S11314704DFFC3B21A00173AD2B2202AECD8FF2289
S113148010406043172BDCD98542D3D02A1A9742E7
S1131490D7D9170003930296D3E77B1C15D0029982
S11314A00B00013B049A1370039C2300183B059A1C
S11314B01370019802F02AFF23004343180006B07A
S11314C004BC9146F0BD0020F9E70020F7E7C046D0
S11314D0807BE1FF805CD70580841E0000093D000D
S11314E0FF083D0010B5002817D043781F210B409A
S11314F00D4A137153791F24A343847821400B436D
S11315005371137901780B4340210B43DBB2137100
S1131510054B9B795B06FBD510BD044B044AC121E6
S11315208900044802F04AFC00400640884C000050
S1131530C04B0000584C0000104A137A20218B4302
S1131540137200280FD0012811D00C4A537880213F
S113155049420B43DBB25370084A537920210B43B1
S1131560DBB25371704753798B435371FAE7034AE3
S113157053787F210B405370EEE7C046004006408D
S113158080220F4B9A71002810D00D4B5B7BDBB28D
S1131590012811D040221343DBB2094A5373537913
S11315A0802149420B43DBB2537170471A005B79C7
S11315B07F210B405371F8E740229343EDE7C04687
S11315C0004006400B4A9379DBB2127AD2070CD45E
S11315D000209A0701D5022210435AB2002A06DBE2
S11315E05B0601D54023184370470120F1E7202210
S11315F01043F5E700400640C30704D5054A137AB3
S113160020218B431372830602D58022014B9A71E9
S11316107047C0460040064070B504000068FFF7FC
S113162077FC2379124A11780F25A9430B431370D1
S113163013785F210B40A1790B4313700D4A537843
S11316403C218B4300010C3908401843637918434B
S113165050706379002B04D0054B1B785BB2002BD0
S113166000DB70BD034B9B799B07FBD5F9E7C046B4
S113167000500640004006400022044B1A70044A01
S113168053783C218B4353707047C046005006404A
S113169000400640F8B5040016001D002B4BC2188C
S11316A02B4B9A4201D92B48F8BDEA002A4B9B18D0
S11316B05B698B4201D92948F6E7274B9B189B6944
S11316C0994201D92548EFE7254B9B79DB0601D5E3
S11316D02448E9E702F01AFE42001218D3009B1ACC
S11316E0012D21D0D9B21E4AD1721B0ADBB29372EA
S11316F0137A41218B43A901402739400B43202110
S11317001943CFB2602149420B43DBB21372144B2D
S11317101B7A5BB2002BFADB114B1B7A9B0605D5B7
S11317200F4B1F721048BFE7DB01DBE7010020000D
S113173002F0ECFD3060012D03D00C4B186000204A
S1131740B2E70A4B58600020AEE7C04600EE85FFC2
S113175000127A00D2070000C04B0000D30700003B
S113176000400640D4070000D507000004E0FF1F36
S113177010B5194CA279920803231340A2791209D7
S1131780012002401100627852080240A4796409E1
S11317902040012B0BD0002B05D0022B0BD0032BA8
S11317A011D0082010BD00290FD10320FAE7002A28
S11317B00DD00220F6E7002A01D00520F2E7002828
S11317C007D00620EEE70720ECE70020EAE7012037
S11317D0E8E70420E6E7C04600400640F8B5194DA6
S11317E0EC78E4B2AB79DB062AD4EB78202673409C
S11317F0DBB2EB700126134D2B783B273B400427CB
S11318003B43DBB22B700F4B9B79DB06FBD5002EE1
S113181001D00C4BDC701F232340C001C0B249012E
S11318206024214008431843064BD870054B9B792C
S11318309B089B07FAD1002A00D090470020F8BDEE
S11318400026D8E700400640F0B5C64600B59046ED
S1131850214CE578EDB2A479E2063BD51E4EF4782E
S113186020277C40E4B2F47001261B4F3C7803220D
S11318701440C0003532104004433C70787842076D
S113188003D5154CA479A007FBD513488079C0066D
S1131890FBD4002E01D01048C5701F202840C90178
S11318A0C9B24246520160242240114301430A4A0C
S11318B0D170094AD278D2B29142FAD1064A9279C9
S11318C092089207FAD1002B00D09847002004BC5C
S11318D09046F0BD0026C8E700400640F8B51D4B11
S11318E0DD78EDB25C780226B4435C709B79DB064C
S11318F02DD4184CE37820267340DBB2E370012624
S1131900144C23783B273B4044273B43DBB22370F2
S1131910104B9B79DB06FBD5002E01D00D4BDD70FF
S11319200C4B9C79A40803232340012BF8D11E33CC
S11319301D40C001C0B24901413319400843284346
S1131940044BD870002A00D090470020F8BD002630
S1131950D6E7C0460040064070B522494A79402483
S1131960A2434A711F4A92799206FBD41D4A5178C8
S11319700224A1435170D178C9B29279D2062ED5EE
S1131980184CE27820256A40D2B2E2700124154D49
S11319902A7803263240C000353630401043802276
S11319A052420243D2B22A706A78520703D50D4AD2
S11319B092799207FBD50B4A9279D206FBD4002C7C
S11319C001D0084AD170074A9179890803220A4054
S11319D0022AF8D1002B00D09847002070BD0024C3
S11319E0D5E7C04600400640034A537802210B4322
S11319F0DBB253700020704700400640034A53781E
S1131A0002210B43DBB253700020704700400640B4
S1131A1010B500292AD0194A537802208343537001
S1131A2013783930184080235B420343DBB21370D0
S1131A30124B9B791C221340082BF9D10F4A53797E
S1131A404020834353710D4B9B799B06FBD40800C4
S1131A50FFF748FD094A537940210B43DBB2537128
S1131A60064B9B799B06FBD5002010BD044B054A11
S1131A702432AE21C900044802F0A0F90040064017
S1131A80884C0000C04B0000584C0000064A1378F4
S1131A903F210B401370044B9A799208032313409F
S1131AA0032BF8D100207047004006400F4A5378BA
S1131AB002218B43537013783D31194080235B42DC
S1131AC00B43DBB21370094B9A799208032313403A
S1131AD0022BF8D1054A537940218B435371034BB0
S1131AE09B799B06FBD400207047C046004006400B
S1131AF00A4A537802218B43537013783D310B40CB
S1131B0040210B43DBB21370044B9A7992080323F0
S1131B101340012BF8D100207047C0460040064016
S1131B2010B5FFF75BFE10BD10B5080011001A00D8
S1131B30029BFFF789FE10BD10B5130002001800C8
S1131B40FFF712FC0B4A13783F210B4040210B4353
S1131B50DBB21370074B9A79920803231340012BCD
S1131B60F8D1044A537802210B43DBB253700020AE
S1131B7010BDC046004006400E4A13783B21194070
S1131B8080235B420B43DBB2137053785B0703D5AE
S1131B90084B9B799B07FBD5064B9B791C22134072
S1131BA0082BF9D1034A537802210B43DBB253705B
S1131BB0002070470040064010B50800002A10D0ED
S1131BC01100FFF725FF0A4A13783F210B401370D9
S1131BD0074B9A79920803231340032BF8D1002072
S1131BE010BD044B044A38320449054802F0E6F8B3
S1131BF000400640884C0000C04B0000190600005D
S1131C00584C000070B505003F4B9A7992080323A5
S1131C101340012B09D0EA78A9786878FFF7A4FB70
S1131C20FFF7A6FD0400002615E0374A5378022189
S1131C308B43537041798079344AFFF7CFFDEAE74B
S1131C40A8796979314AFFF7C9FD0600002E55D1FC
S1131C502B789C424AD02A78E0002D4C2418A418F2
S1131C604C23E45C072CF1D8A3002A49CB589F46A7
S1131C702879A9796A79254BFFF7E6FD0600E5E79F
S1131C80A87969790022FFF729FE0600DEE72879A2
S1131C90A9796A790023FFF75FFE0600D6E7FFF70C
S1131CA0A3FE0600D2E7FFF7A9FE0600CEE7063A38
S1131CB0D2B2012A10D914490B783F221A4080234A
S1131CC05B421343DBB20B700F4B9A7992080323E8
S1131CD01340022BF8D1B9E7E91D0020FFF798FE65
S1131CE00600B3E7FFF7D2FE0600AFE7EB795B0629
S1131CF006D4054A137940218B431371300070BD1B
S1131D00E81DFFF7EFFBF9E700400640CD0E0000A9
S1131D10C04B0000344B000010B5002901D0002353
S1131D2008E0064B064A0749074802F047F8C47919
S1131D30CC5401339342FAD310BDC046A04E0000E8
S1131D40904C000079020000A84E000010B5002954
S1131D5001D0002309E0064B064A18320649074819
S1131D6002F02CF8CC5CC47101339342FAD310BD59
S1131D70A04E0000904C000041020000A84E00005C
S1131D8010B50023022B07D89900094A5218126B88
S1131D90824201D00133F5E7022B01D8180010BDAF
S1131DA0044B034A3C32A121034802F007F8C04621
S1131DB0904C0000BC4E0000A84E000010B5002856
S1131DC009D0428C92B2038C9BB29A420AD8038CFB
S1131DD0408C181A10BD074B074A5032A8210748F7
S1131DE001F0ECFF038CC26994466344408C181ADA
S1131DF0F0E7C046D84E0000904C0000A84E00000A
S1131E0010B5041E07D0FFF7D9FFE369013B9842E0
S1131E1008D0002010BD044B044A7432BA2104488F
S1131E2001F0CCFF0120F5E7D84E0000904C0000F3
S1131E30A84E0000F0B5C64600B582B0070088463B
S1131E400192002927D00D68002D2BD0290101987B
S1131E5002F05CFA84B2002C00D101342101019813
S1131E6002F054FA461B611C0901019802F04EFA73
S1131E70281A864202D90134A4B20600642128003B
S1131E8002F044FA43001818864212D9304802B0CE
S1131E9004BC9046F0BD2F4B2F4A1432CC212F485E
S1131EA001F08CFF2E4B2C4A1432CD212B4801F02B
S1131EB085FF3800FFF764FF83002748C018036AD2
S1131EC01A0C28498C46624411681B041B0C01201F
S1131ED0984003000B431360FB780C229343FB7080
S1131EE03B7813329343220A1343DBB23B70E4B2D0
S1131EF07C70BB7817229343424692799200042166
S1131F000A40134342461279002A03D01343102295
S1131F101343DBB2BB703B78202293434246527991
S1131F20520120210A4013433B70FB78DBB2424646
S1131F30D279002A02D008221343DBB24246127A35
S1131F40002A02D004221343DBB2FB7000209EE778
S1131F50F5030000884C0000104D0000A84E00005E
S1131F60E04E00000070044010B503795B06FCD518
S1131F700023C370FFF704FF83000748C018036AF7
S1131F801A0C06498C46624411681B041B0C012080
S1131F9098408143116010BD104D00000070044052
S1131FA010B5002809D0E1235B020360002303710C
S1131FB043718371C371037210BD044B044A2C3204
S1131FC06C21FF31034801F0F9FEC046884C000043
S1131FD0104D0000A84E0000F0B583B007000D1EA0
S1131FE0019222D00901019802F090F984B2002CE8
S1131FF000D101342101019802F088F9461B611CCB
S11320000901019802F082F9281A864202D90134A2
S1132010A4B206006421280002F078F943001818DD
S113202086420AD30E4803B0F0BD0E4B0E4A44322A
S11320308221FF310D4801F0C1FEFA78D2B2FB785B
S11320400C218B43FB703B7813318B43210A0B43E8
S1132050DBB23B70E4B27C70FA700020E3E7C04668
S1132060F5030000E84E0000104D0000A84E0000EB
S1132070074B194003780B43DBB20370C3780A0A99
S11320801343DBB2C3708379090C19438171704720
S1132090C0F00F00064B194003788B430370C378DC
S11320A00A0A9343C3708379090C8B438371704785
S11320B0C0F00F00F8B504000D1E24D003799B076F
S11320C029D42379DB0738D423791B0748D423790F
S11320D0DB0602D5E378DB064FD423799B0602D5D1
S11320E0E3789B0661D42D23EB5C042B00D1CAE07A
S11320F02D23EB5C052B00D1C5E023795BB2002BCB
S113210000DAD3E0F8BD804B804A583280498148D8
S113211001F054FEE37923799B06FBD404222D239A
S1132120EA5400232B616E6A002ECAD0AB6A7A4A45
S113213029002000B047C4E7E37923799B06FBD448
S113214005222D23EA5400232B616E6A002EBBD096
S1132150AB6AFD22920029002000B047B4E7E3797E
S113216023799B06FBD46E6A002EB0D0AB6A6B4A0F
S113217029002000B047AAE7E3792379DB06FBD4E2
S11321802B69002B0BD06E6A002EA6D02B69002B76
S1132190A3D0AB6A624A29002000B0479DE78021A2
S11321A049012000FFF776FFEDE70127002F1ED03D
S11321B02B69002B1BD0E96801222000FFF7ACFD3E
S11321C0EB680133EB602B69013B2B61013FFFB2EC
S11321D02B69002BEAD102222D33EA546E6A002EB9
S11321E0E4D0AB6A4F4A29002000B047DEE7AB6970
S11321F0002B2ED12B69002B00D074E7A2210903F8
S11322002000FFF747FFA3789B0700D46BE78021EA
S113221049022000FFF73EFF65E72800FFF7F0FDC5
S1132220002808D06B8C0133EA69934225D06B8C6B
S113223001339BB26B842B8CE279A969CA542B8C31
S11322400133EA6993421BD02B8C01339BB22B845C
S113225037007E1EF6B2002F00D144E72800FFF7B6
S1132260CFFD0028D9D06F6A002FD6D0AB6AFC22EC
S1132270920029002000B847CFE700236B84DAE7F7
S113228000232B84E4E7AB69002B00D035E7A321BE
S113229009032000FFF7FEFEA3789B0700D42CE778
S11322A0802149022000FFF7F5FE26E7E3785BB2C0
S11322B0002B00DB26E70126002E00D122E76B6805
S11322C0002B00D11EE7296801222000FFF73EFD04
S11322D02B6801332B606B68013B6B60013EF6B2E7
S11322E06B68002BE8D100222C33EA54E3787F3268
S11322F01340E3706F6A002FDED0AB6A0A4A2900EC
S11323002000B847D8E7C046D84E0000104D000062
S1132310AA030000A84E0000F3030000F10300002C
S1132320F6030000EB030000EA0300000378C27820
S113233012021343807900041843014B184070477C
S1132340C0F00F000379407900021843704710B5BC
S11323500C0043793F2213400A0AD2B2134343715B
S113236017230B4201D00379C379230701D50379DD
S1132370C379FFF7E7FF204201D0024810BD0020D7
S1132380FCE7C046EE03000010B507E003795BB23A
S1132390002BFBDA0B78C37122000131541E002A92
S11323A0F4D110BD70B504000D1E13D0561E002AC2
S11323B01CD023799B0614D42000FFF7C3FF030726
S11323C016D4430716D4830716D4C307F1D5FD20CA
S11323D080000EE0094B0A4A70320A490A4801F0AB
S11323E0EDFCE3792B7032000135DFE7002000E0DB
S11323F0064870BD0648FCE70648FAE7A04E000010
S1132400104D00004F020000A84E0000F103000030
S1132410F2030000F3030000F8B505000C001700F8
S11324201E00002925D030220021200002F032F9BC
S113243002222D23E2540022013BE2546762A66289
S11324402800FFF79DFC0E4B8200D4500D4ADA6041
S11324500D4B18182023C3561A00803208D0002BC5
S113246006DB1F2213401E3A9A401300074A1360EA
S1132470F8BD074B044A04320649074801F09EFCA4
S113248080E0FF1FB5200000904D000000E100E057
S1132490D84E00008A020000A84E000010B50400C7
S11324A000290ED0002A13D08A61CB6100230B844B
S11324B04B84A2210903FFF7DBFDA3789B070ED40D
S11324C010BD0A4B0A4A24320A490B4801F076FC33
S11324D00A4B074A24320A49074801F06FFC80215D
S11324E049022000FFF7C4FDEAE7C046D84E0000C9
S11324F0904D0000A6020000A84E0000F84E000017
S1132500A702000070B505000C1E09D02D23CB5C7A
S1132510022B0CD00023A361E3612384638470BD88
S1132520094B0A4A44320A490A4801F047FCA221ED
S11325300903FFF7AFFDAB789B07EBD58021490278
S11325402800FFF7A7FDE5E7D84E0000904D0000F6
S1132550BB020000A84E000010B500290ED0002ACE
S113256014D05368002B18D01368002B1CD02C24D3
S11325700C5D012C1FD1FA20800010BD154B164AAA
S11325806032B4218900154801F018FC144B124A3A
S113259060321449114801F011FC134B0E4A6032A9
S11325A012490E4801F00AFC114B0B4A60321149E2
S11325B00A4801F003FC0B6053684B6053688B605E
S11325C001222C23CA5480210902FFF751FD002067
S11325D0D3E7C046D84E0000904D0000A84E00003E
S11325E0044F0000D10200000C4F0000D202000092
S11325F01C4F0000D302000010B50C1E08D0C021EF
S11326000902FFF747FD002363602C22A35410BD89
S1132610024B034A0349044801F0D0FBD84E0000A2
S1132620104E0000EE020000A84E000010B5002974
S113263007D0002A0DD02C23CB5C002B10D1062010
S113264010BD0A4B0A4A1832BE218900094801F01C
S1132650B5FB094B064A18320849064801F0AEFB9F
S11326608B6849685B1A13600020E9E7D84E0000C4
S1132670104E0000A84E0000284F0000F902000090
S1132680F0B5CE46474680B583B001900C001600E5
S11326909846002921D0002A26D01368002B2AD07E
S11326A05768002F2FD02D228A5C032A00D18BE09B
S11326B08A69002A00D16DE0802189010198FFF721
S11326C0E9FC2000FFF77AFB002860D0390087423C
S11326D000D901007F1A00231FE03D4B3D4A3432EC
S11326E03D493E4801F06AFB3D4B3A4A34323D498C
S11326F03A4801F063FB3C4B364A3432C32189002B
S1132700364801F05BFB394B324A3432384933489E
S113271001F054FB0023638413008B4210D25A1C33
S1132720608C80B2A569285C3568E854638C0133F9
S1132730E0698342EED0638C01339BB26384EBE7A0
S11327409946002F07D033684B44E36027616761E3
S113275003222D23E25480218901019D2800FFF7E3
S113276087FC002F07D1666A002E04D0A36A214A91
S113277021002800B0474346002B27D04B46424651
S11327801360002003B00CBC90469946F0BD0023B2
S11327909946D6E7CB600F614F6103222D23CA54BB
S11327A0A3210903019C2000FFF762FCA3789B0787
S11327B002D400239946DEE7802149020198FFF7FD
S11327C057FC00239946D6E70B48DBE70020D9E7FE
S11327D0D84E0000104E00000A030000A84E00006E
S11327E0044F00000B0300001C4F00000C4F0000BE
S11327F00D030000EB030000E903000070B50500C1
S11328000C1E08D08B69002B0CD0002323610222FC
S11328102D33E25470BD0A4B0A4A54320A490B481C
S113282001F0CCFAA3210903FFF734FCAB789B0732
S1132830EBD5802149022800FFF72CFCE5E7C046D0
S1132840D84E0000104E000081030000A84E000086
S113285010B500290BD0002A10D02D23CB5C022BFD
S113286013D04B6909695B1A1360002010BD084B33
S1132870084A70320849094801F0A0FA084B054A91
S113288070320849054801F099FA0620EEE7C0467F
S1132890D84E0000104E000096030000A84E000021
S11328A0284F000097030000704710B5024B596889
S11328B0DB680248984710BD80E0FF1F00B0064067
S11328C010B5FFF7F2FF10BD10B5034B9968DB6834
S11328D00248984710BDC04680E0FF1F00C0064074
S11328E010B5FFF7F1FF10BD10B51C22014901F02E
S11328F08FFE10BD304F000010B500280AD0436889
S1132900002B04D04068FFF7EFFF002010BD024BFE
S11329104360F7E70420F9E790E0FF1F0378002BFA
S11329200CD04378002B01D1782070470E4AD1682F
S113293080231B020B43D3600020F6E70A4AD368C6
S11329400A490B40D3604378002B06D0064AD3686B
S113295007490B40D3600020E7E7D1688023DB01FF
S11329600B43D3600020E0E7003000F0FF7FFFFF5F
S1132970FFBFFFFF10B504000222002101F08AFE10
S1132980002323706370074BDB681A0404D45B04D0
S113299005D40123637002E00123237063700020D7
S11329A010BDC046003000F010B544680134012366
S11329B00A228021C9000148A04710BD0C3000F054
S11329C010B5002901D0002010BDFFF7EDFFFAE794
S11329D000B583B001A8074B1B880380EFF3108276
S11329E072B6054B1A60BFF36F8FFFF797FF03B002
S11329F000BDC0464C4F0000D0E0FF1F00B583B0BF
S1132A0001A8002303704370FFF788FF034B1B6882
S1132A1083F31088BFF36F8F03B000BDD0E0FF1FB6
S1132A20EFF3108272B6024B1A60BFF36F8F7047D8
S1132A30D0E0FF1F034B1B6883F31088BFF36F8F35
S1132A407047C046D0E0FF1F437860229343437031
S1132A5000207047054A136904218B431361BFF3B7
S1132A604F8F30BFBFF36F8F0020704700ED00E041
S1132A7083783F2213408901C9B219438170437896
S1132A80383A93434370094A136904210B43136191
S1132A904378BFF34F8F30BFBFF36F8F43781B076B
S1132AA001D5034870470020FCE7C04600ED00E074
S1132AB03C0F000043786022934340221343DBB26F
S1132AC0437000207047064A136904218B43136145
S1132AD0BFF34F8F30BFBFF36F8F00207047C046E6
S1132AE000ED00E043780722934302221343DBB254
S1132AF04370094A136904210B4313614378BFF3FC
S1132B004F8F30BFBFF36F8F43781B0701D5034846
S1132B1070470020FCE7C04600ED00E03C0F0000D9
S1132B2043780722934303221343DBB24370094AD9
S1132B30136904210B4313614378BFF34F8F30BFF4
S1132B40BFF36F8F43781B0701D5034870470020FC
S1132B50FCE7C04600ED00E03C0F000010B50B7828
S1132B60002B06D14B78002B1FD08378202293436F
S1132B70837043780722934304242343DBB24370D6
S1132B80837893430A78134383700C4A13690421AE
S1132B900B4313614378BFF34F8F30BFBFF36F8F85
S1132BA043781B0707D5064810BD837820221343BA
S1132BB0DBB28370DDE70020F6E7C04600ED00E0FD
S1132BC03C0F000010B5002901D0002308E0064B9B
S1132BD0064AB431064801F0F1F8C479CC54013303
S1132BE09342FAD310BDC046A04E0000504F0000DF
S1132BF06451000010B5002901D0002309E0064B00
S1132C00064A1832C231064801F0D8F8CC5CC471C7
S1132C1001339342FAD310BDA04E0000504F000080
S1132C206451000010B50023002B03D0002B06D103
S1132C30180010BD054A9042F8D00133F4E7044B64
S1132C40044A30328921044801F0B8F800A0064053
S1132C5078510000504F00006451000010B5002866
S1132C6009D0428C92B2038C9BB29A420AD8038C4C
S1132C70408C181A10BD074B074A4432902107486C
S1132C8001F09CF8038CC26994466344408C181A82
S1132C90F0E7C046D84E0000504F000064510000D9
S1132CA010B5041E07D0FFF7D9FFE369013B984232
S1132CB008D0002010BD044B044A6832A221044805
S1132CC001F07CF80120F5E7D84E0000504F0000D9
S1132CD064510000F0B5DE4657464646C0B584B0A0
S1132CE083468A460192002908D00F68002F0CD031
S1132CF0B846042500230293039313E0504B514A32
S1132D000C32D021504801F059F8504B4D4A0C3246
S1132D10D1214D4801F052F8464502D8B0460295FB
S1132D2003940135202D1AD839006943019801F024
S1132D30EDFA84B2002C00D10134290061430198DA
S1132D4001F0E4FAC61B611C6943019801F0DEFA44
S1132D50381A8642E0D90134A4B20600DCE76421C3
S1132D60380001F0D3FA43001818804506D93848D2
S1132D7004B01CBC90469A46A346F0BD5846FFF7E3
S1132D8051FF344A11688023DB000B4313605B4618
S1132D90DB780C2293435A46D370029B043B032BEB
S1132DA005D8D37A02221343DBB25A46D3725B4668
S1132DB0997A1F208143029B013BDBB20B435A46A5
S1132DC09372937A834303990A0AD2B213435A46FD
S1132DD01370CBB25370937817229343524692796F
S1132DE0920004210A40134352461279002A03D068
S1132DF0134310221343DBB25A46937013782022F4
S1132E0093435A461370127853465B795B01202131
S1132E100B4013435A461370D378DBB25246D2792F
S1132E20002A02D008221343DBB25246127A002A47
S1132E3002D004221343DBB25A46D370002097E732
S1132E40884C0000D04F000064510000E04E0000A8
S1132E50B50400003480044010B503795B06FCD54A
S1132E60FFF7E0FE024A136802490B40136010BDED
S1132E7034800440FFFBFFFF10B5002809D0E12394
S1132E805B0203600023037143718371C371037296
S1132E9010BD044B044A1832A8214900034800F02D
S1132EA08DFFC046884C0000D04F000064510000E4
S1132EB0F0B5DE46474680B585B083460E1E0092C7
S1132EC005D08846042400230393029309E0324B7F
S1132ED0324A3032AE214900314800F06FFF0134EC
S1132EE0E4B2202C21D8019421007143009801F010
S1132EF00DFA85B2002D00D10135290061430098F7
S1132F0001F004FA871B691C6143009801F0FEF983
S1132F10301A874202D90135ADB207004745DED8E1
S1132F200395B846019B0293D9E76421300001F070
S1132F30EDF943001818804505D31A4805B00CBCB8
S1132F4090469B46F0BD5B46D878C0B2DB780C2235
S1132F5093435A46D370029B043B032B05D8D37A80
S1132F6002221343DBB25A46D3725B46997A1F247A
S1132F70A143029B013BDBB20B435A469372937A03
S1132F80A34303990A0AD2B213435A461370CBB22D
S1132F905370D0700020D1E7E84E0000D04F0000FD
S1132FA064510000B5040000074B194003780B433B
S1132FB0DBB20370C3780A0A1343DBB2C3708379AC
S1132FC0090C194381717047C0F00F00064B19407A
S1132FD003788B430370C3780A0A9343C3708379DD
S1132FE0090C8B4383717047C0F00F000378C278DB
S1132FF012021343807900041843014B18407047B0
S1133000C0F00F000379407900021843704782B082
S11330106B46DA1D0023137013780133DBB213708F
S11330200B0403D5802343710A4B19404B0403D589
S113303040234371084B1940CB0604D01F230B4097
S113304003711F239943002902D0044802B070473A
S11330500020FBE7FF7FFFFFFFBFFFFFB40400007A
S1133060F8B505000C1E24D00379DB0728D42B798E
S11330709B0734D42B791B0742D42B79DB0602D56A
S1133080EB78DB064DD42B799B0602D5EB789B06B7
S11330905DD42D23E35C042B00D1C5E02D23E35C38
S11330A0052B00D1C0E02B795BB2002B00DACEE017
S11330B0F8BD7D4B7D4A44327D497E4800F07EFE5A
S11330C005222D23CA540121FFF7A1FF666A002EB1
S11330D0CDD0A36A784A21002800B047C7E704226C
S11330E02D23E25402212800FFF791FF666A002E87
S11330F0C0D0A36A714A21002800B047BAE7EB792F
S11331002B799B06FBD408212800FFF780FF666A11
S1133110002EB2D0A36A9722D20021002800B04723
S1133120ABE710212800FFF772FF2369002B08D0BA
S1133130666A002EA7D0A36A614A21002800B0471E
S1133140A1E7802149012800FFF740FFF0E70127AC
S1133150002F1ED02369002B1BD0E1680122280018
S1133160FFF730FDE3680133E3602369013B23612A
S1133170013FFFB22369002BEAD102222D33E2542E
S1133180666A002EE4D0A36A4E4A21002800B047A4
S1133190DEE7A369002B2ED12369002B00D078E74A
S11331A0A22109032800FFF711FFAB789B0700D485
S11331B06FE7802149022800FFF708FF69E7200034
S11331C0FFF76EFD002808D0638C0133E269934257
S11331D024D0638C01339BB26384238CEA79A16984
S11331E0CA54238C0133E26993421AD0238C0133ED
S11331F09BB2238437007E1EF6B2002F00D148E72D
S11332002000FFF74DFD0028D9D0676A002FD6D0E3
S1133210A36A2D4A21002800B847D0E7002363841D
S1133220DBE700232384E5E7A369002B00D03AE71A
S1133230A22109032800FFF7C9FEAB789B0700D43D
S113324031E7802149022800FFF7C0FE2BE7EB7825
S11332505BB2002B00DB2BE70126002E00D127E711
S11332606368002B00D123E7216801222800FFF7BF
S1133270C1FC2368013323606368013B6360013E42
S1133280F6B26368002BE8D100222C33E254EB78C9
S11332907F321340EB70676A002FDED0A36A0B4ABB
S11332A021002800B847D8E7D84E0000D04F0000CE
S11332B05E03000064510000BB040000BA04000077
S11332C0BC040000B3040000B7040000B204000012
S11332D010B500290ED1094B094A5C3209490A4844
S11332E000F06CFD03795BB2002BFBDA0B78C37141
S11332F022000131541E002AF4D110BDA04E00005A
S1133300D04F0000050200006451000070B50400B5
S11333100D1E16D0561E002A33D023799B062BD4BB
S11333202000FFF76FFE030713D4430718D4830765
S11333301CD4C307F1D501212000FFF768FE124811
S11333400DE0124B124A703285218900114800F0B9
S113335035FD08212000FFF75AFE9720C00070BDFC
S113336004212000FFF753FE0B48F8E70221200058
S1133370FFF74DFE0948F2E7E3792B70320001357F
S1133380C8E70020EBE7C046BB040000A04E0000E5
S1133390D04F000064510000B9040000BA040000DA
S11333A0F8B505000C0017001E00002919D03022C2
S11333B00021200001F06EF902222D23E2540022A4
S11333C0013BE2546762A6622800FFF72BFC084B1E
S11333D08000C450074A5A6080225201064B1A608A
S11333E0F8BD064B064A04320649074800F0E6FCDD
S11333F0D4E0FF1F6130000000E100E0D84E00007F
S113340050500000410200006451000010B5040057
S113341000290ED0002A13D08A61CB6100230B84CB
S11334204B84A2210903FFF7BFFDA3789B070ED4A9
S113343010BD0A4B0A4A20320A490B4800F0BEFC70
S11334400A4B074A20320A49074800F0B7FC80219A
S113345049022000FFF7A8FDEAE7C046D84E000065
S1133460505000005E02000064510000F84E00005D
S11334705F02000070B505000C1E09D02D23CB5C43
S1133480022B0CD00023A361E3612384638470BD09
S1133490094B0A4A40320A490A4800F08FFCA2212B
S11334A00903FFF793FDAB789B07EBD58021490215
S11334B02800FFF78BFDE5E7D84E000050500000D0
S11334C0730200006451000010B500290ED0002AD8
S11334D013D05368002B17D01368002B1BD02C2457
S11334E00C5D012C1FD19620C00010BD154B164A4F
S11334F060321649164800F061FC164B124A6032DD
S11335001549134800F05AFC144B0F4A6032144911
S11335100F4800F053FC134B0B4A6032A32189007F
S11335200B4800F04BFC0B6053684B6053688B6096
S113353001222C23CA5480210902FFF735FD002003
S1133540D3E7C046D84E0000505000008902000066
S113355064510000044F00008A0200000C4F000078
S11335608B0200001C4F000010B50C1E08D0C021B7
S11335700902FFF72BFD002363602C22A35410BD26
S1133580024B034A0349044800F018FCD84E0000DB
S1133590D0500000A70200006451000010B50029BB
S11335A007D0002A0CD02C23CB5C002B0FD1062093
S11335B010BD0A4B0A4A18320A490B4800F0FEFBB8
S11335C00A4B074A18320A49074800F0F7FB8B6890
S11335D049685B1A13600020EAE7C046D84E000031
S11335E0D0500000B102000064510000284F0000D8
S11335F0B2020000F0B5CE46474680B583B00190D4
S11336000C0016009846002921D0002A26D05768BD
S1133610002F2BD01368002B2FD02D228A5C032A75
S113362000D18BE08A69002A00D16DE080218901F4
S11336300198FFF7CBFC2000FFF710FB002860D0B7
S11336403900874200D901007F1A00231FE03D4B57
S11336503D4A34323D493E4800F0B0FB3D4B3A4AC6
S11336603432B12189003A4800F0A8FB3A4B364A7B
S113367034323A49364800F0A1FB394B324A3432ED
S11336803849334800F09AFB0023638413008B42CB
S113369010D25A1C608C80B2A569285C3568E85445
S11336A0638C0133E0698342EED0638C01339BB2B7
S11336B06384EBE79946002F07D033684B44E360FB
S11336C02761676103222D23E25480218901019D32
S11336D02800FFF769FC002F07D1666A002E04D08A
S11336E0A36A214A21002800B0474346002B27D073
S11336F04B4642461360002003B00CBC90469946EA
S1133700F0BD00239946D6E7CB600F614F610322D9
S11337102D23CA54A3210903019C2000FFF744FC74
S1133720A3789B0702D400239946DEE7802149024F
S11337300198FFF739FC00239946D6E70B48DBE7ED
S11337400020D9E7D84E0000D0500000C30200008A
S113375064510000044F00000C4F0000C50200003B
S11337601C4F0000C6020000B3040000B1040000B6
S113377070B505000C1E08D08B69002B0CD00023FB
S1133780236102222D33E25470BD0A4B0A4A583297
S11337900A490B4800F012FBA3210903FFF716FCAA
S11337A0AB789B07EBD5802149022800FFF70EFC7C
S11337B0E5E7C046D84E0000D05000003A030000B0
S11337C06451000010B500290BD0002A10D02D231D
S11337D0CB5C022B14D04B6909695B1A136000207F
S11337E010BD084B084A74320849094800F0E6FA4B
S11337F0084B054A7432D4218900054800F0DEFAEA
S11338000620EDE7D84E0000D05000004F03000022
S113381064510000284F0000704710B5024B19682E
S11338205B680248984710BDD4E0FF1F00A0064023
S1133830020003681B78002005E00130C0B2136861
S1133840591C11605B78202BF7D0092BF5D00A2B7B
S1133850F3D00D2BF1D00B2BEFD00C2BEDD0704708
S1133860F0B5C64600B582B017001E0008AB1B7841
S11338709846451C00230370002A21D00C68002CB4
S113388001D000270DE0303343700127380002B027
S113389004BC9046F0BD3023591A29700137013514
S11338A0019C002CF2D03100200000F0B9FD019001
S11338B03100200000F09AFE0029ECDB3031ECE707
S11338C00C68002C0DD1302343700127DEE74346FA
S11338D0002B13D041231C190A3C2C7001370135ED
S11338E00400002CD2D03100200000F00FFD0300B2
S11338F07343E41A092CEAD83034EEE76123EAE78B
S1133900F0B5DE4657464E464546E0B591B00391C4
S113391002929946002306930493040098460025D6
S1133920AFE00027002600E00126002E0DD1601C28
S113393062781300303B092BF6D8BB00DB19590021
S11339405218303A17000400EFE7621C63782E2BFC
S113395022D0631C9A4662781400642A27D0692A0C
S113396025D0662A23D0462A21D0782A1FD0582A67
S11339701DD06F2A1BD0622A19D0702A17D0752A3D
S113398015D0632A00D188E0732A00D18EE0012388
S113399006A90298C84772E0002114000029D8D172
S11339A0621C6378303B092BF7D93100F6E7642CAD
S11339B02ED0692C2CD0582C3BD0782C39D0012314
S11339C09B466F2C05D0622C03D0702C01D0752C33
S11339D015D1039B1A1D03921B6804936F2C42D0CC
S11339E0622C42D0702C3CD00A235A46009200220A
S11339F004A907A8FFF734FF804607AD45444346B2
S1133A00FB1A202206A90298C847002D34D136E0BB
S1133A10039B1A1D03921B6805930123009309332A
S1133A20012205A907A8FFF71BFF804607AD4544FF
S1133A30C1E7782C12D001239B46039B1A1D0392E5
S1133A401B6804935B4600931023002204A907A873
S1133A50FFF706FF804607AD4544B2E700239B46C7
S1133A60EBE71023C1E70823BFE70223BDE7013DCD
S1133A70012306A90298C8472A78002AF7D1544698
S1133A8001342278131E2AD0252B00D149E70123C3
S1133A9006A90298C847A246F1E7039B1A1D0392A0
S1133AA01A78012306A90298C847E8E7039B1A1D60
S1133AB003921C68002CE2D0200000F079FE8046BE
S1133AC03B1A202206A90298C84704E001340123C6
S1133AD006A90298C8472278002AF7D1CFE70698AA
S1133AE011B03CBC90469946A246AB46F0BDF0B539
S1133AF0C64600B584B00192039102900378002B6E
S1133B0000D153E100250FE002A8FFF791FE0BE07E
S1133B105A1C0392029908785B78984200D043E1DA
S1133B200131029101320392039B1B78002B00D1D7
S1133B303AE1029B1B78002B00D135E103A8FFF783
S1133B4077FE061EE0D1039B1A78252AE0D15A7825
S1133B50252ADDD00133039304000027039A137848
S1133B60002B4DD07C2131424AD1303BD9B2482977
S1133B7041D88B008F49CB589F46002C0ED1A3000F
S1133B801C196300039A14781C19303C531C0393CA
S1133B905378303BDBB2092BF1D9DFE728002BE067
S1133BA0854B1E43013203920A27D7E720231E4385
S1133BB0013203920A27D1E720231E4301320392E4
S1133BC00827CBE720231E43013203921027C5E7C1
S1133BD020231E43013203920027BFE704231E4320
S1133BE0002C00D1013401320392B7E708231E43AD
S1133BF001320392B2E7280004B004BC9046F0BD41
S1133C007C2333400AD0002C00D16334082B28D005
S1133C10202B58D0042B03D02800EDE72800EBE735
S1133C20029F019B1A1D0192186802E0013302935E
S1133C301400621E002C0BD0029B1978002907D0B7
S1133C40B107F3D4591C02911B7803700130EFE7DC
S1133C50B30700D568E7029B9F4200D164E70135B2
S1133C6062E702A8FFF7E4FD029F019B1A1D01927F
S1133C70186805E0531C02931378037001300C009C
S1133C80611E002C14D0029A1378002B10D0202B24
S1133C900ED0092B0CD00A2B0AD00D2B08D00B2BDD
S1133CA006D00C2B04D0B307E4D501320292E6E728
S1133CB0B30700D538E7029B9F4200D134E70023C5
S1133CC00370013530E702A8FFF7B2FD029B002F15
S1133CD001D0102F02D11A78302A13D0002F03D12B
S1133CE01B78302B1CD00A27029B1A782B2A1CD055
S1133CF02D2A17D101330293013C01235B429846DC
S1133D00002028E05A78782A01D0582AE6D1002CDD
S1133D1004D09A1C0292023C1027DFE71027DDE74B
S1133D200837E1E701239846EAE701330293013CAF
S1133D3001239846E4E70B00413BDBB2052B02D894
S1133D403739CBB200E03B009F4219D97843C01801
S1133D50013202926446029A1178002910D0631E3F
S1133D609C46002C0CD00B00303BDBB2092BEBD96A
S1133D700B00613BDBB2052BDDD85739CBB2E3E74F
S1133D8043465843B30700D5CEE6B30406D5019B9A
S1133D901A1D01921B6818600135C5E6019B1A1DA6
S1133DA001921B681860F7E7280025E701204042CC
S1133DB022E7C0469C5100002020000010B582B0CC
S1133DC00C001900009223000200024800F0F5F8EC
S1133DD000BEFDE7C052000030B585B00D001400F0
S1133DE000280CD003791F4A137101681160032B5A
S1133DF021D0062B09D0012B07D005B030BD1A4BBA
S1133E001A4AFF211A48FFF7D9FF01A8FEF7C8F89C
S1133E100195144D220001A92868FEF70BF82A68C1
S1133E20D37808210B43DBB2D370D37804210B433E
S1133E30DBB2D370E1E701A8FFF71EF80195094D45
S1133E40220001A92868FEF745FF2A68D3780821D3
S1133E500B43DBB2D370D37804210B43DBB2D370B2
S1133E60CBE7C046DCE0FF1F08530000005300000E
S1133E701453000010B50C4B1B79002B08D0032BF6
S1133E800DD0062B06D0012B04D00022064B1A714C
S1133E90002010BD044B1868FEF766F8F5E7024BE6
S1133EA01868FEF7D9FFF0E7DCE0FF1F10B50B4BF5
S1133EB01B79012B03D0032B08D0002010BD074B26
S1133EC01868FEF73FFA4306F9D5F6E7034B18687E
S1133ED0FFF798F84306F9D5EFE7C046DCE0FF1F8B
S1133EE010B50400154B1B79032B16D0062B03D0F9
S1133EF0012B01D0012010BD002A07D00F4B1868F8
S1133F000A002100FEF740FA0020F4E70B4B186882
S1133F100A002100FEF746FAEDE7002A06D1074B16
S1133F2018680A002100FFF7F1F9E4E7034B186869
S1133F300A002100FFF7CCF90020DCE7DCE0FF1FDA
S1133F40F0B5C64600B506000C0090461F000025DB
S1133F5006E023684246F2542368013323600135A6
S1133F60BD4209DA21684B1C7F2BF2D9300000F0E6
S1133F70BCF800232360ECE704BC9046F0BD10B508
S1133F80141E04D00A00210000F08AF810BD034B6F
S1133F90034A69210348FFF711FFC0463853000064
S1133FA0285300006453000010B500F088F8002086
S1133FB010BD10B500F087F810BD0FB430B5A3B034
S1133FC026AC20CC8022002101A800F063FB2194C0
S1133FD0074B01AA21002800FFF792FC010001A869
S1133FE000F083F823B030BC08BC04B01847C046C6
S1133FF0413F000000B583B00190012101A800F009
S113400074F803B000BD0FB430B589B00CAC20CC4B
S11340101522002101A800F03DFB142101A800F0A5
S113402077F807942200290001A8FFF760FD09B082
S113403030BC08BC04B0184710B582B06B46DC1D18
S1134040200000F0A3F8207802B010BD10B50B00DA
S11340501400002908D00138012808D811001800DC
S113406000F043F8200010BD01204042FBE701208E
S11340704042F8E710B50B00002804D111001800E5
S113408000F046F810BD01204042FBE710B50022C5
S11340900121FFF725FF002800D110BD0120FCE716
S11340A010B582B014001A0000906B4619710023F9
S11340B021006846FFF790FE002002B010BD10B545
S11340C0FFF7D8FE10BD10B5FFF7F0FE002010BDBD
S11340D010B50C1E07D0002805D00122FFF700FF01
S11340E0002800D00024200010BD10B5002802D004
S11340F0FFF7EEFF10BD034B034A4021FF31034895
S1134100FFF75CFEB453000084530000C05300006A
S1134110F0B583B007000E00002801D000240DE0A4
S1134120174B184A0C32B22149001748FFF746FED4
S1134130002C12D100232B70013C01340194B442B1
S11341400BD23D192800FFF7A1FF002814D12B78CA
S11341500D2BEDD00A2BF0D1EAE7019BB34207D037
S1134160019E0136BF1900233B70200003B0F0BD4F
S1134170FE1800233370F8E701246442F5E7C046D3
S1134180B453000084530000C053000010B500284D
S113419005D0FFF77BFF002809D1013010BD054B86
S11341A0054A1C32CB2149000448FFF707FE0120D1
S11341B04042F3E7D453000084530000C05300008E
S11341C00B490A6880239B001A430A6009494A681C
S11341D0094802401A434A608A68024013438B60CC
S11341E00649074A8B58072083438B507047C046C3
S11341F03880044000900440FFF8FFFF0070044042
S11342001010000010B5094809494358094A1A40DA
S11342108023DB0413434350FCF7D2FF0300032243
S1134220E12149020448FFF7AAFE10BD00700440D2
S113423004100000FFFFFFF300A00640044A1378B7
S113424038218B43C0000840184310707047C046A3
S11342500040064010B51049104B114AD150114C82
S11342602000FDF7D9F9104A104B1A600020FFF71F
S1134270E5FF22000F3200210020FDF79DFC002203
S113428000210220FDF770F820001430FCF7E8FE4E
S1134290074A084B1A6010BD0000031044100000C8
S11342A000700440E053000000127A00E8E0FF1FB1
S11342B0006CDC0200E0FF1F10B50D490D4B0E4AE7
S11342C0D150022201210020FDF736FC0B481C309E
S11342D0FCF7C6FE0A482A230370FEF7EBFB084BE3
S11342E0DB78042BFBD1074A074B1A6010BDC0468C
S11342F0000003104410000000700440E05300006C
S113430000E0074000093D0000E0FF1F00224308D1
S11343108B4274D303098B425FD3030A8B4244D389
S1134320030B8B4228D3030C8B420DD3FF220902CB
S113433012BA030C8B4202D31212090265D0030B8A
S11343408B4219D300E0090AC30B8B4201D3CB0380
S1134350C01A5241830B8B4201D38B03C01A5241C2
S1134360430B8B4201D34B03C01A5241030B8B42C4
S113437001D30B03C01A5241C30A8B4201D3CB02AF
S1134380C01A5241830A8B4201D38B02C01A524194
S1134390430A8B4201D34B02C01A5241030A8B4297
S11343A001D30B02C01A5241CDD2C3098B4201D3AF
S11343B0CB01C01A524183098B4201D38B01C01A2D
S11343C0524143098B4201D34B01C01A52410309A4
S11343D08B4201D30B01C01A5241C3088B4201D353
S11343E0CB00C01A524183088B4201D38B00C01A00
S11343F0524143088B4201D34B00C01A5241411A27
S113440000D20146524110467047FFE701B5002033
S113441000F0F0F802BDC0460029F7D076E77047F7
S113442003460B437FD4002243088B4274D3030911
S11344308B425FD3030A8B4244D3030B8B4228D3B2
S1134440030C8B420DD3FF22090212BA030C8B42D8
S113445002D31212090265D0030B8B4219D300E078
S1134460090AC30B8B4201D3CB03C01A5241830BFD
S11344708B4201D38B03C01A5241430B8B4201D3AD
S11344804B03C01A5241030B8B4201D30B03C01AD6
S11344905241C30A8B4201D3CB02C01A5241830A50
S11344A08B4201D38B02C01A5241430A8B4201D37F
S11344B04B02C01A5241030A8B4201D30B02C01AA9
S11344C05241CDD2C3098B4201D3CB01C01A524110
S11344D083098B4201D38B01C01A524143098B4299
S11344E001D34B01C01A524103098B4201D30B0182
S11344F0C01A5241C3088B4201D3CB00C01A5241A7
S113450083088B4201D38B00C01A524143088B426B
S113451001D34B00C01A5241411A00D20146524104
S1134520104670475DE0CA0F00D04942031000D323
S11345304042534000229C4603098B422DD3030A78
S11345408B4212D3FC22890112BA030A8B420CD388
S1134550890192118B4208D3890192118B4204D3B1
S113456089013AD0921100E08909C3098B4201D331
S1134570CB01C01A524183098B4201D38B01C01A6B
S1134580524143098B4201D34B01C01A52410309E2
S11345908B4201D30B01C01A5241C3088B4201D391
S11345A0CB00C01A524183088B4201D38B00C01A3E
S11345B05241D9D243088B4201D34B00C01A524115
S11345C0411A00D20146634652415B10104601D3A2
S11345D04042002B00D54942704763465B1000D32C
S11345E0404201B5002000F005F802BD0029F8D0D2
S11345F016E770477047C04610B50A22002100F044
S1134600C5F910BD10B50A23002200F003F910BD4E
S1134610F0B505000F2A2FD90B0003439B0734D1B3
S113462016000C000300103E350901352D01451913
S113463027681F6067685F60A7689F60E768103439
S1134640DF6010339D42F3D10F239E43103685194A
S113465089191340032B1AD91E1F0023B4080134EF
S1134660A400CF58EF500433A342FAD10324A64345
S1134670331D2240C918ED18002A05D00023CC5C54
S1134680EC5401339342FAD1F0BD0500F6E71A0069
S1134690F2E7C046F0B5830743D0541E002A3FD04A
S11346A0CEB20200032502E01A00013C38D3531CA9
S11346B016702B42F8D1032C2AD9FF220A40150286
S11346C015432A0415430F2C14D927001A00103F50
S11346D03E09013636019E19156055609560D56016
S11346E010329642F8D10F2297431037DB19144049
S11346F0032C0DD91A00271FBE080136B6009E19D7
S113470020C2B242FCD1032297430437DB19144080
S1134710002C05D0C9B21C19197001339C42FBD17D
S1134720F0BD14000300C6E7024670B50A439207C1
S11347302AD11E4DEE0104C808C9541B94433440C9
S113474017D0D0B2D9B2401A2106014310D190B289
S113475099B2401A210401430AD110021902000A35
S1134760090A401A2102014302D1100E190E401AFF
S113477070BD9A42DFD010BA19BA884201D901201B
S113478070BD0020C04370BD02780B780130013148
S1134790002A09D09A4207D102780B7801300131FE
S11347A0002A01D09A42EFD0D01A70BD0101010154
S11347B010B5830725D00378002B24D003000321F0
S11347C002E01A78002A1AD001330B42F9D1196891
S11347D00E4A0F4C8A188A43224206D104331968C0
S11347E00A4A8A188A432242F8D01A001B78002BFE
S11347F003D0013211780029FBD1101A10BD181A08
S1134800FCE70300E3E70020F8E7C046FFFEFEFEF6
S113481080808080F0B545464E46DE465746E0B57A
S11348201E00584B87B004911D6805900B009046FC
S1134830082100E03B001C785F1C2A1952781142C1
S1134840F8D12D2C00D16EE0002201922B2C00D146
S113485079E0002E04D0102E00D177E0009605E018
S1134860302C00D17FE00A230A260093464A019B9C
S11348709446009A63449146110018009A460393A3
S1134880FFF7CAFD4B460291504649460093FFF795
S11348903DFD042281469246013A9346009A002344
S11348A000204946944600960EE0009A303CA2420D
S11348B01BDD5A1C06D088422FD82BD063465843A0
S11348C0012320183C78013756462A19527816429B
S11348D0EBD15E46324008D05726B146012A1FD09C
S11348E04A46A41A009AA242E3DC5A1C20D0019A38
S11348F0002A00D040424246002A04D0049A002BE9
S11349001FD143461A6007B03CBC90469946A24664
S1134910AB46F0BD029B9C42D0DD01235B42D1E754
S113492036329146DCE73C789F1C0123019390E7E3
S11349302222059B1A604346002B20D07A1E03983E
S1134940DFE70390FAE73C789F1C82E7302C13D111
S113495020223B789343582B0ED110237C7800936C
S11349600237102682E720223B789343582BF4D059
S113497008230826009379E71023009376E7039829
S1134980C1E7C0460CE0FF1FFFFFFF7F10B5040026
S11349901300034A10680A002100FFF73BFF10BD13
S11349A010E0FF1F440500006405000084050000BA
S11349B0A4050000C4050000E4050000040600008E
S11349C0240600004406000064060000840600007B
S11349D0A2060000C2060000E20600000207000072
S11349E0220700002511070835260A0B4C454420F0
S11349F05645524D454C4C4F204F4E0D0A00000079
S1134A004C4544205645524445204F4E0D0A000063
S1134A100D0A5265696E6963696F210D0A00000011
S1134A2045736372696265206F20636F6D616E64A4
S1134A306F3A0D0A0000000025730000436F6D619A
S1134A406E646F206573637269746F3A2025730D09
S1134A500A0000004E756D3A2025640D0A0000001E
S1134A606C656431000000006C6564320000000075
S1134A706F6666004C4544205645524445204F46D7
S1134A80460D0A004C4544205645524D454C4C4F6A
S1134A90204F46460D0A0000626C696E6B000000F0
S1134AA0426C696E6B20646F206C6564207665725D
S1134AB06D656C6C6F0D0A00426C696E6B20646FDF
S1134AC0206C65642076657264650D0A0000000040
S1134AD0426C696E6B207465726D696E61646F0DF2
S1134AE00A000000436F6D616E646F206E6F6E206C
S1134AF07265636F6E68656369646F0D0A00000018
S1134B00F4120000F412000008130000081300005F
S1134B102A130000301300004E1300003613000067
S1134B203C1300004213000048130000541300001B
S1134B30EE120000401C0000801C00009E1C0000BF
S1134B40701C00008E1C0000A61C0000AE1C00009F
S1134B50E41C0000434C4F434B5F4765744D63674F
S1134B60457874436C6B467265710000434C4F4347
S1134B704B5F4765744F7363304572436C6B467289
S1134B8065710000434C4F434B5F47657445723376
S1134B90326B436C6B467265710000008002DC026C
S1134BA00005B80580079508000A710B434C4F4374
S1134BB04B5F476574506C6C304672657100000041
S1134BC0434C4F434B5F456E61626C65506C6C3077
S1134BD000000000127A000097980000C0C62D0063
S1134BE0404B4C00434C4F434B5F536574506265DC
S1134BF04D6F646500000000434C4F434B5F426FB0
S1134C006F74546F5065654D6F6465000001010356
S1134C100404040400010203040404040101020165
S1134C200101010100010103040404040001010362
S1134C300405060604040404040506060404040426
S1134C40040506070606060606060606675F787468
S1134C50616C304672657100647269766572732F97
S1134C6066736C5F636C6F636B2E6300675F78744D
S1134C70616C333246726571000000006D636770C9
S1134C806C6C30636C6B0000636F6E666967000068
S1134C90554152545F526561644E6F6E426C6F634E
S1134CA06B696E6700000000554152545F5772698A
S1134CB074654E6F6E426C6F636B696E67000000C3
S1134CC00000000000B0064000C0064055415254A8
S1134CD05F476574496E7374616E6365000000001C
S1134CE0554152545F5472616E73666572476574C0
S1134CF0527852696E674275666665724C656E6776
S1134D0074680000554152545F5472616E73666555
S1134D10724973527852696E674275666665724667
S1134D20756C6C00554152545F496E697400000003
S1134D30000000000B0034100C0034105541525494
S1134D405F47657444656661756C74436F6E66692C
S1134D5067000000554152545F53657442617564A5
S1134D605261746500000000554152545F547261F1
S1134D706E7366657248616E646C654952510000D9
S1134D80554152545F52656164426C6F636B696E46
S1134D9067000000554152545F5472616E7366653A
S1134DA07243726561746548616E646C65000000ED
S1134DB0800D0E00554152545F5472616E736665E6
S1134DC072537461727452696E6742756666657275
S1134DD000000000554152545F5472616E73666561
S1134DE07253746F7052696E6742756666657200BD
S1134DF0554152545F5472616E7366657253656EA9
S1134E00644E6F6E426C6F636B696E6700000000E6
S1134E10554152545F5472616E7366657241626F9C
S1134E20727453656E640000554152545F5472614C
S1134E306E7366657247657453656E64436F756E11
S1134E4074000000554152545F5472616E7366657C
S1134E5072526563656976654E6F6E426C6F636B03
S1134E60696E6700554152545F5472616E73666592
S1134E707241626F72745265636569766500000001
S1134E80554152545F5472616E736665724765741E
S1134E9052656365697665436F756E740000000042
S1134EA06461746100000000647269766572732F36
S1134EB066736C5F756172742E630000696E73743F
S1134EC0616E6365203C2075617274417272617910
S1134ED0436F756E7400000068616E646C65000059
S1134EE0636F6E6669672D3E6261756452617465B5
S1134EF05F4270730000000072696E6742756666F7
S1134F00657200007866657200000000786665725C
S1134F102D3E6461746153697A6500007866657238
S1134F202D3E646174610000636F756E740000004F
S1134F3010B5002905D004688C43934019402143DF
S1134F400160BFF36F8FBFF34F8F10BD01010000ED
S1134F504C505343495F526561644E6F6E426C6FAF
S1134F60636B696E670000004C505343495F57728E
S1134F706974654E6F6E426C6F636B696E67000097
S1134F804C505343495F476574496E7374616E6353
S1134F90650000004C505343495F5472616E736660
S1134FA06572476574527852696E674275666665C4
S1134FB0724C656E677468004C505343495F547279
S1134FC0616E736665724973527852696E67427591
S1134FD06666657246756C6C000000004C50534365
S1134FE0495F496E697400004C505343495F4765FB
S1134FF07444656661756C74436F6E66696700001E
S11350004C505343495F53657442617564526174F3
S1135010650000004C505343495F5472616E7366DF
S1135020657248616E646C65495251004C5053433B
S1135030495F5772697465426C6F636B696E670090
S11350404C505343495F52656164426C6F636B69B2
S11350506E6700004C505343495F5472616E73662F
S1135060657243726561746548616E646C650000C5
S11350704C505343495F5472616E73666572537446
S113508061727452696E67427566666572000000EB
S11350904C505343495F5472616E73666572537426
S11350A06F7052696E674275666665720000000033
S11350B04C505343495F5472616E73666572536515
S11350C06E644E6F6E426C6F636B696E67000000B6
S11350D04C505343495F5472616E7366657241620A
S11350E06F727453656E64004C505343495F54723D
S11350F0616E7366657247657453656E64436F755C
S11351006E7400004C505343495F5472616E736671
S11351106572526563656976654E6F6E426C6F6346
S11351206B696E67000000004C505343495F547232
S1135130616E7366657241626F727452656365690C
S1135140766500004C505343495F5472616E736638
S1135150657247657452656365697665436F756EFC
S113516074000000647269766572732F66736C5FF5
S11351706C707363692E6300696E7374616E63652A
S1135180203C2041525241595F53495A4528735F8C
S11351906C70736369426173657329007A3B000024
S11351A07A3B00007A3B00007A3B00007A3B000027
S11351B07A3B00007A3B00007A3B00007A3B000017
S11351C07A3B0000F63B0000F63B0000F63B000093
S11351D0F63B0000F63B0000F63B0000F63B000007
S11351E0F63B0000F63B0000F63B0000F63B0000F7
S11351F0F63B0000F63B0000F63B0000F63B0000E7
S1135200F63B0000F63B0000F63B0000F63B0000D6
S1135210F63B0000F63B0000F63B0000F63B0000C6
S1135220F63B0000F63B0000F63B0000F63B0000B6
S1135230F63B0000F63B0000F63B0000C43B0000D8
S1135240F63B0000F63B0000F63B0000F63B000096
S1135250F63B0000F63B0000F63B0000F63B000086
S1135260F63B0000F63B0000DC3B0000A03B0000E6
S1135270F63B0000F63B0000F63B0000F63B000066
S1135280D03B0000F63B0000F63B0000F63B00007C
S1135290F63B0000F63B0000B83B0000F63B000084
S11352A0F63B0000F63B0000EC3B0000F63B000040
S11352B0AC3B0000F63B0000F63B0000C43B0000A2
S11352C0415353455254204552524F5220222025D7
S11352D07320223A2066696C652022257322204CB3
S11352E0696E6520222564222066756E6374696F79
S11352F06E206E616D652022257322200A00000055
S1135300494F5F496E6974004E554C4C20213D2035
S1135310696F00007574696C69746965732F6673CD
S11353206C5F696F2E630000446267436F6E736F36
S11353306C655F496E6974006465766963652021F4
S11353403D2044454255475F434F4E534F4C455FC4
S11353504445564943455F545950455F4E4F4E4569
S1135360000000007574696C69746965732F667355
S11353706C5F64656275675F636F6E736F6C652ED7
S1135380630000004C4F475F5075736800000000D5
S11353904C4F475F526561644C696E6500000000C4
S11353A04C4F475F52656164436861726163746521
S11353B07200000062756620213D204E554C4C0061
S11353C07574696C69746965732F66736C5F6C6F4F
S11353D0672E6300636820213D204E554C4C00002D
S11353E000127A00000480000702000000000000A0
S11353F00100000001030000000001100003000090
S11354000000040000000000000C00000202010083
S113541000000000000000000020202020202020A8
S11354202020282828282820202020202020202050
S11354302020202020202020208810101010101060
S113544010101010101010101004040404040404AC
S11354500404041010101010101041414141414146
S11354600101010101010101010101010101010128
S11354700101010110101010101042424242424238
S113548002020202020202020202020202020202F8
S113549002020202101010102000000000000000A0
S11354A000000000000000000000000000000000F8
S11354B000000000000000000000000000000000E8
S11354C000000000000000000000000000000000D8
S11354D000000000000000000000000000000000C8
S11354E000000000000000000000000000000000B8
S11354F000000000000000000000000000000000A8
S11355000000000000000000000000000000000097
S11355100000000000000000000000004300000044
S1075520F8B5C046D0
S1075524F8B5C046CC
S1135528000040010080000000093D0018540000FC
S113553814E0FF1F0000000000000000000000004D
S1135548000000000000000000000000000000004F
S1135558000000001C5500000000000000000000CE
S1135568000000000000000000000000000000002F
S1135578000000000000000000000000000000001F
S1135588000000000000000000000000000000000F
S1075598000000000B
S9030410E8
